:08000000803102288731FD2F39
:100F84008731DA278731C52F803102284F01960136
:100F94009701980199019A019B010800623051015F
:100FA4008D008F019101023093009001920108009D
:100FB4008731C82787318731E42787318731D027A4
:100FC40087310800400198019A013F3092003F3078
:100FD40094003F307E01CE003730B800B901CF0114
:100FE400BA01D0013F30BB003F30D1003F30BC00DC
:0C0FF4003F30D200080040018731C22FBE
:020000040001F9
:0A000E00EC3FFF3F9F3FFF3FFF3F25
:00000001FF
